{
  "contractName": "ToDoList",
  "abi": [
    {
      "constant": true,
      "inputs": [],
      "name": "taskCount",
      "outputs": [
        {
          "name": "",
          "type": "uint256"
        }
      ],
      "payable": false,
      "stateMutability": "view",
      "type": "function",
      "signature": "0xb6cb58a5"
    }
  ],
  "bytecode": "0x608060405260008055348015601357600080fd5b506099806100226000396000f3fe608060405260043610603e5763ffffffff7c0100000000000000000000000000000000000000000000000000000000600035041663b6cb58a581146043575b600080fd5b348015604e57600080fd5b5060556067565b60408051918252519081900360200190f35b6000548156fea165627a7a72305820d750e8580215a853789e90e350a51d08920d84ba0ec4a769621802a059e0d0b00029",
  "source": "pragma solidity 0.5.0;\r\n\r\n\r\ncontract ToDoList {\r\n\r\n    uint public taskCount = 0; \r\n\r\n}\r\n\r\n",
  "sourcePath": "C:/Users/HP 25/Desktop/Adharsh/Blockchain/eth-todo-list/contracts/ToDoList.sol",
  "compiler": {
    "name": "solc",
    "version": "0.5.0+commit.1d4f565a.Emscripten.clang"
  },
  "schemaVersion": "3.0.1",
  "updatedAt": "2022-07-04T06:12:46.384Z",
  "devdoc": {
    "methods": {}
  },
  "userdoc": {
    "methods": {}
  }
}