{
  "contractName": "ToDoList",
  "abi": [
    {
      "constant": true,
      "inputs": [
        {
          "name": "",
          "type": "uint256"
        }
      ],
      "name": "tasks",
      "outputs": [
        {
          "name": "id",
          "type": "uint256"
        },
        {
          "name": "regNo",
          "type": "string"
        },
        {
          "name": "owner",
          "type": "string"
        },
        {
          "name": "model",
          "type": "string"
        },
        {
          "name": "manu",
          "type": "string"
        },
        {
          "name": "completed",
          "type": "bool"
        }
      ],
      "payable": false,
      "stateMutability": "view",
      "type": "function",
      "signature": "0x8d977672"
    },
    {
      "constant": true,
      "inputs": [],
      "name": "taskCount",
      "outputs": [
        {
          "name": "",
          "type": "uint256"
        }
      ],
      "payable": false,
      "stateMutability": "view",
      "type": "function",
      "signature": "0xb6cb58a5"
    },
    {
      "inputs": [],
      "payable": false,
      "stateMutability": "nonpayable",
      "type": "constructor",
      "signature": "constructor"
    },
    {
      "anonymous": false,
      "inputs": [
        {
          "indexed": false,
          "name": "id",
          "type": "uint256"
        },
        {
          "indexed": false,
          "name": "regNo",
          "type": "string"
        },
        {
          "indexed": false,
          "name": "owner",
          "type": "string"
        },
        {
          "indexed": false,
          "name": "model",
          "type": "string"
        },
        {
          "indexed": false,
          "name": "manu",
          "type": "string"
        },
        {
          "indexed": false,
          "name": "completed",
          "type": "bool"
        }
      ],
      "name": "TaskCreated",
      "type": "event",
      "signature": "0xe1e94f490d2224e01e767c0d25b696f19dc4c3593849e4db330338c945ebaf35"
    },
    {
      "anonymous": false,
      "inputs": [
        {
          "indexed": false,
          "name": "id",
          "type": "uint256"
        },
        {
          "indexed": false,
          "name": "completed",
          "type": "bool"
        }
      ],
      "name": "TaskCompleted",
      "type": "event",
      "signature": "0xe21fa966ca5cd02748c0752352d18c48165e61cb55b4c29cccf924b5a95fcff1"
    },
    {
      "constant": false,
      "inputs": [
        {
          "name": "_regNo",
          "type": "string"
        },
        {
          "name": "_owner",
          "type": "string"
        },
        {
          "name": "_model",
          "type": "string"
        },
        {
          "name": "_manu",
          "type": "string"
        }
      ],
      "name": "createTask",
      "outputs": [],
      "payable": false,
      "stateMutability": "nonpayable",
      "type": "function",
      "signature": "0x72a9f819"
    },
    {
      "constant": false,
      "inputs": [
        {
          "name": "_id",
          "type": "uint256"
        }
      ],
      "name": "toggleCompleted",
      "outputs": [],
      "payable": false,
      "stateMutability": "nonpayable",
      "type": "function",
      "signature": "0x455f5024"
    }
  ],
  "bytecode": "0x6080604052600080553480156200001557600080fd5b50620001076040805190810160405280600981526020017f3931313639204d435400000000000000000000000000000000000000000000008152506040805190810160405280600781526020017f41646861727368000000000000000000000000000000000000000000000000008152506040805190810160405280600281526020017f52380000000000000000000000000000000000000000000000000000000000008152506040805190810160405280600481526020017f41756469000000000000000000000000000000000000000000000000000000008152506200010d640100000000026401000000009004565b6200048b565b6000805460019081018083556040805160c08101825282815260208082018a81528284018a9052606083018990526080830188905260a0830187905293865284815291909420845181559151805192936200017193908501929190910190620003e6565b50604082015180516200018f916002840191602090910190620003e6565b5060608201518051620001ad916003840191602090910190620003e6565b5060808201518051620001cb916004840191602090910190620003e6565b5060a08201518160050160006101000a81548160ff0219169083151502179055509050507fe1e94f490d2224e01e767c0d25b696f19dc4c3593849e4db330338c945ebaf3560005485858585600060405180878152602001806020018060200180602001806020018615151515815260200185810385528a818151815260200191508051906020019080838360005b83811015620002745781810151838201526020016200025a565b50505050905090810190601f168015620002a25780820380516001836020036101000a031916815260200191505b5085810384528951815289516020918201918b019080838360005b83811015620002d7578181015183820152602001620002bd565b50505050905090810190601f168015620003055780820380516001836020036101000a031916815260200191505b5085810383528851815288516020918201918a019080838360005b838110156200033a57818101518382015260200162000320565b50505050905090810190601f168015620003685780820380516001836020036101000a031916815260200191505b50858103825287518152875160209182019189019080838360005b838110156200039d57818101518382015260200162000383565b50505050905090810190601f168015620003cb5780820380516001836020036101000a031916815260200191505b509a505050505050505050505060405180910390a150505050565b828054600181600116156101000203166002900490600052602060002090601f016020900481019282601f106200042957805160ff191683800117855562000459565b8280016001018555821562000459579182015b82811115620004595782518255916020019190600101906200043c565b50620004679291506200046b565b5090565b6200048891905b8082111562000467576000815560010162000472565b90565b610e82806200049b6000396000f3fe6080604052600436106100615763ffffffff7c0100000000000000000000000000000000000000000000000000000000600035041663455f5024811461006657806372a9f819146100925780638d977672146102da578063b6cb58a5146104c0575b600080fd5b34801561007257600080fd5b506100906004803603602081101561008957600080fd5b50356104e7565b005b34801561009e57600080fd5b50610090600480360360808110156100b557600080fd5b8101906020810181356401000000008111156100d057600080fd5b8201836020820111156100e257600080fd5b8035906020019184600183028401116401000000008311171561010457600080fd5b91908080601f016020809104026020016040519081016040528093929190818152602001838380828437600092019190915250929594936020810193503591505064010000000081111561015757600080fd5b82018360208201111561016957600080fd5b8035906020019184600183028401116401000000008311171561018b57600080fd5b91908080601f01602080910402602001604051908101604052809392919081815260200183838082843760009201919091525092959493602081019350359150506401000000008111156101de57600080fd5b8201836020820111156101f057600080fd5b8035906020019184600183028401116401000000008311171561021257600080fd5b91908080601f016020809104026020016040519081016040528093929190818152602001838380828437600092019190915250929594936020810193503591505064010000000081111561026557600080fd5b82018360208201111561027757600080fd5b8035906020019184600183028401116401000000008311171561029957600080fd5b91908080601f016020809104026020016040519081016040528093929190818152602001838380828437600092019190915250929550610856945050505050565b3480156102e657600080fd5b50610304600480360360208110156102fd57600080fd5b5035610b1b565b60405180878152602001806020018060200180602001806020018615151515815260200185810385528a818151815260200191508051906020019080838360005b8381101561035d578181015183820152602001610345565b50505050905090810190601f16801561038a5780820380516001836020036101000a031916815260200191505b5085810384528951815289516020918201918b019080838360005b838110156103bd5781810151838201526020016103a5565b50505050905090810190601f1680156103ea5780820380516001836020036101000a031916815260200191505b5085810383528851815288516020918201918a019080838360005b8381101561041d578181015183820152602001610405565b50505050905090810190601f16801561044a5780820380516001836020036101000a031916815260200191505b50858103825287518152875160209182019189019080838360005b8381101561047d578181015183820152602001610465565b50505050905090810190601f1680156104aa5780820380516001836020036101000a031916815260200191505b509a505050505050505050505060405180910390f35b3480156104cc57600080fd5b506104d5610d7c565b60408051918252519081900360200190f35b6104ef610d82565b600082815260016020818152604092839020835160c0810185528154815281840180548651600296821615610100026000190190911695909504601f810185900485028601850190965285855290949193858401939092908301828280156105985780601f1061056d57610100808354040283529160200191610598565b820191906000526020600020905b81548152906001019060200180831161057b57829003601f168201915b5050509183525050600282810180546040805160206001841615610100026000190190931694909404601f8101839004830285018301909152808452938101939083018282801561062a5780601f106105ff5761010080835404028352916020019161062a565b820191906000526020600020905b81548152906001019060200180831161060d57829003601f168201915b505050918352505060038201805460408051602060026001851615610100026000190190941693909304601f81018490048402820184019092528181529382019392918301828280156106be5780601f10610693576101008083540402835291602001916106be565b820191906000526020600020905b8154815290600101906020018083116106a157829003601f168201915b505050918352505060048201805460408051602060026001851615610100026000190190941693909304601f81018490048402820184019092528181529382019392918301828280156107525780601f1061072757610100808354040283529160200191610752565b820191906000526020600020905b81548152906001019060200180831161073557829003601f168201915b50505091835250506005919091015460ff16151560209182015260a08201805115905260008481526001808352604090912083518155838301518051949550859491936107a493850192910190610dbb565b50604082015180516107c0916002840191602090910190610dbb565b50606082015180516107dc916003840191602090910190610dbb565b50608082015180516107f8916004840191602090910190610dbb565b5060a091820151600591909101805460ff191691151591909117905581015160408051848152911515602083015280517fe21fa966ca5cd02748c0752352d18c48165e61cb55b4c29cccf924b5a95fcff19281900390910190a15050565b6000805460019081018083556040805160c08101825282815260208082018a81528284018a9052606083018990526080830188905260a0830187905293865284815291909420845181559151805192936108b893908501929190910190610dbb565b50604082015180516108d4916002840191602090910190610dbb565b50606082015180516108f0916003840191602090910190610dbb565b506080820151805161090c916004840191602090910190610dbb565b5060a08201518160050160006101000a81548160ff0219169083151502179055509050507fe1e94f490d2224e01e767c0d25b696f19dc4c3593849e4db330338c945ebaf3560005485858585600060405180878152602001806020018060200180602001806020018615151515815260200185810385528a818151815260200191508051906020019080838360005b838110156109b357818101518382015260200161099b565b50505050905090810190601f1680156109e05780820380516001836020036101000a031916815260200191505b5085810384528951815289516020918201918b019080838360005b83811015610a135781810151838201526020016109fb565b50505050905090810190601f168015610a405780820380516001836020036101000a031916815260200191505b5085810383528851815288516020918201918a019080838360005b83811015610a73578181015183820152602001610a5b565b50505050905090810190601f168015610aa05780820380516001836020036101000a031916815260200191505b50858103825287518152875160209182019189019080838360005b83811015610ad3578181015183820152602001610abb565b50505050905090810190601f168015610b005780820380516001836020036101000a031916815260200191505b509a505050505050505050505060405180910390a150505050565b600160208181526000928352604092839020805481840180548651600296821615610100026000190190911695909504601f81018590048502860185019096528585529094919392909190830182828015610bb75780601f10610b8c57610100808354040283529160200191610bb7565b820191906000526020600020905b815481529060010190602001808311610b9a57829003601f168201915b50505060028085018054604080516020601f6000196101006001871615020190941695909504928301859004850281018501909152818152959695945090925090830182828015610c495780601f10610c1e57610100808354040283529160200191610c49565b820191906000526020600020905b815481529060010190602001808311610c2c57829003601f168201915b5050505060038301805460408051602060026001851615610100026000190190941693909304601f8101849004840282018401909252818152949594935090830182828015610cd95780601f10610cae57610100808354040283529160200191610cd9565b820191906000526020600020905b815481529060010190602001808311610cbc57829003601f168201915b5050505060048301805460408051602060026001851615610100026000190190941693909304601f8101849004840282018401909252818152949594935090830182828015610d695780601f10610d3e57610100808354040283529160200191610d69565b820191906000526020600020905b815481529060010190602001808311610d4c57829003601f168201915b5050506005909301549192505060ff1686565b60005481565b60c06040519081016040528060008152602001606081526020016060815260200160608152602001606081526020016000151581525090565b828054600181600116156101000203166002900490600052602060002090601f016020900481019282601f10610dfc57805160ff1916838001178555610e29565b82800160010185558215610e29579182015b82811115610e29578251825591602001919060010190610e0e565b50610e35929150610e39565b5090565b610e5391905b80821115610e355760008155600101610e3f565b9056fea165627a7a72305820debd00bfcefc5f3640e11fc83e3453ed616273658bd0e48e81d772cf0f2db3e60029",
  "source": "pragma solidity ^0.5.0;\r\n// if you write a new function to the contract u should first migrate it\r\n// to the blockchain by typing \" truffle migrate --reset \"\r\n\r\ncontract ToDoList {\r\n\r\n    uint public taskCount = 0; \r\n\r\n    struct Task {\r\n        uint id;\r\n        string regNo;\r\n        string owner;\r\n        string model;\r\n        string manu;\r\n        bool completed;\r\n    }\r\n\r\n    mapping (uint => Task) public tasks;\r\n    event TaskCreated(\r\n        uint id,\r\n        string regNo,\r\n        string owner,\r\n        string model,\r\n        string manu,\r\n        bool completed\r\n    );\r\n\r\n    event TaskCompleted(\r\n        uint id,\r\n        bool completed\r\n    );\r\n\r\n\r\n    constructor() public {\r\n        createTask(\"91169 MCT\",\"Adharsh\",\"R8\",\"Audi\");\r\n    }\r\n\r\n    function createTask(string memory _regNo,string memory _owner,string memory _model,string memory _manu) public {\r\n        taskCount ++;\r\n        tasks[taskCount] = Task(taskCount,_regNo,_owner,_model,_manu,false);\r\n        emit TaskCreated(taskCount,_regNo,_owner,_model,_manu,false);\r\n    }\r\n\r\n    function toggleCompleted(uint _id) public {\r\n        Task memory _task = tasks[_id];\r\n        _task.completed = !_task.completed;\r\n        tasks[_id] = _task;\r\n        emit TaskCompleted(_id,_task.completed);\r\n    }\r\n\r\n        \r\n    \r\n}\r\n\r\n",
  "sourcePath": "C:/Users/HP 25/Desktop/Adharsh/Blockchain/eth-todo-list/contracts/ToDoList.sol",
  "compiler": {
    "name": "solc",
    "version": "0.5.0+commit.1d4f565a.Emscripten.clang"
  },
  "schemaVersion": "3.0.1",
  "updatedAt": "2022-07-17T10:33:48.916Z",
  "devdoc": {
    "methods": {}
  },
  "userdoc": {
    "methods": {}
  }
}