{
  "contractName": "ToDoList",
  "abi": [
    {
      "constant": true,
      "inputs": [],
      "name": "requestCount",
      "outputs": [
        {
          "name": "",
          "type": "uint256"
        }
      ],
      "payable": false,
      "stateMutability": "view",
      "type": "function"
    },
    {
      "constant": true,
      "inputs": [
        {
          "name": "",
          "type": "uint256"
        }
      ],
      "name": "requests",
      "outputs": [
        {
          "name": "id",
          "type": "uint256"
        },
        {
          "name": "regNo",
          "type": "string"
        },
        {
          "name": "owner",
          "type": "string"
        },
        {
          "name": "model",
          "type": "string"
        },
        {
          "name": "manu",
          "type": "string"
        },
        {
          "name": "status",
          "type": "string"
        }
      ],
      "payable": false,
      "stateMutability": "view",
      "type": "function"
    },
    {
      "constant": true,
      "inputs": [
        {
          "name": "",
          "type": "uint256"
        }
      ],
      "name": "tasks",
      "outputs": [
        {
          "name": "id",
          "type": "uint256"
        },
        {
          "name": "regNo",
          "type": "string"
        },
        {
          "name": "owner",
          "type": "string"
        },
        {
          "name": "model",
          "type": "string"
        },
        {
          "name": "manu",
          "type": "string"
        },
        {
          "name": "completed",
          "type": "bool"
        }
      ],
      "payable": false,
      "stateMutability": "view",
      "type": "function"
    },
    {
      "constant": true,
      "inputs": [],
      "name": "taskCount",
      "outputs": [
        {
          "name": "",
          "type": "uint256"
        }
      ],
      "payable": false,
      "stateMutability": "view",
      "type": "function"
    },
    {
      "inputs": [],
      "payable": false,
      "stateMutability": "nonpayable",
      "type": "constructor"
    },
    {
      "anonymous": false,
      "inputs": [
        {
          "indexed": false,
          "name": "id",
          "type": "uint256"
        },
        {
          "indexed": false,
          "name": "regNo",
          "type": "string"
        },
        {
          "indexed": false,
          "name": "owner",
          "type": "string"
        },
        {
          "indexed": false,
          "name": "model",
          "type": "string"
        },
        {
          "indexed": false,
          "name": "manu",
          "type": "string"
        },
        {
          "indexed": false,
          "name": "status",
          "type": "string"
        }
      ],
      "name": "TaskRequest",
      "type": "event"
    },
    {
      "anonymous": false,
      "inputs": [
        {
          "indexed": false,
          "name": "id",
          "type": "uint256"
        },
        {
          "indexed": false,
          "name": "regNo",
          "type": "string"
        },
        {
          "indexed": false,
          "name": "owner",
          "type": "string"
        },
        {
          "indexed": false,
          "name": "model",
          "type": "string"
        },
        {
          "indexed": false,
          "name": "manu",
          "type": "string"
        },
        {
          "indexed": false,
          "name": "completed",
          "type": "bool"
        }
      ],
      "name": "TaskCreated",
      "type": "event"
    },
    {
      "anonymous": false,
      "inputs": [
        {
          "indexed": false,
          "name": "id",
          "type": "uint256"
        },
        {
          "indexed": false,
          "name": "completed",
          "type": "bool"
        }
      ],
      "name": "TaskCompleted",
      "type": "event"
    },
    {
      "anonymous": false,
      "inputs": [
        {
          "indexed": false,
          "name": "id",
          "type": "uint256"
        },
        {
          "indexed": false,
          "name": "status",
          "type": "string"
        }
      ],
      "name": "RequestCompleted",
      "type": "event"
    },
    {
      "constant": false,
      "inputs": [
        {
          "name": "_regNo",
          "type": "string"
        },
        {
          "name": "_owner",
          "type": "string"
        },
        {
          "name": "_model",
          "type": "string"
        },
        {
          "name": "_manu",
          "type": "string"
        }
      ],
      "name": "requestTask",
      "outputs": [],
      "payable": false,
      "stateMutability": "nonpayable",
      "type": "function"
    },
    {
      "constant": false,
      "inputs": [
        {
          "name": "_regNo",
          "type": "string"
        },
        {
          "name": "_owner",
          "type": "string"
        },
        {
          "name": "_model",
          "type": "string"
        },
        {
          "name": "_manu",
          "type": "string"
        }
      ],
      "name": "createTask",
      "outputs": [],
      "payable": false,
      "stateMutability": "nonpayable",
      "type": "function"
    },
    {
      "constant": false,
      "inputs": [
        {
          "name": "_id",
          "type": "uint256"
        }
      ],
      "name": "toggleCompleted",
      "outputs": [],
      "payable": false,
      "stateMutability": "nonpayable",
      "type": "function"
    },
    {
      "constant": false,
      "inputs": [
        {
          "name": "_id",
          "type": "uint256"
        },
        {
          "name": "choice",
          "type": "string"
        }
      ],
      "name": "statusCompleted",
      "outputs": [],
      "payable": false,
      "stateMutability": "nonpayable",
      "type": "function"
    }
  ],
  "bytecode": "0x60806040526000805560006001553480156200001a57600080fd5b506200010c6040805190810160405280600981526020017f3931313639204d435400000000000000000000000000000000000000000000008152506040805190810160405280600781526020017f41646861727368000000000000000000000000000000000000000000000000008152506040805190810160405280600281526020017f52380000000000000000000000000000000000000000000000000000000000008152506040805190810160405280600481526020017f417564690000000000000000000000000000000000000000000000000000000081525062000112640100000000026401000000009004565b62000491565b6000805460019081018083556040805160c08101825282815260208082018a81528284018a9052606083018990526080830188905260a083018790529386526002815291909420845181559151805192936200017793908501929190910190620003ec565b506040820151805162000195916002840191602090910190620003ec565b5060608201518051620001b3916003840191602090910190620003ec565b5060808201518051620001d1916004840191602090910190620003ec565b5060a08201518160050160006101000a81548160ff0219169083151502179055509050507fe1e94f490d2224e01e767c0d25b696f19dc4c3593849e4db330338c945ebaf3560005485858585600060405180878152602001806020018060200180602001806020018615151515815260200185810385528a818151815260200191508051906020019080838360005b838110156200027a57818101518382015260200162000260565b50505050905090810190601f168015620002a85780820380516001836020036101000a031916815260200191505b5085810384528951815289516020918201918b019080838360005b83811015620002dd578181015183820152602001620002c3565b50505050905090810190601f1680156200030b5780820380516001836020036101000a031916815260200191505b5085810383528851815288516020918201918a019080838360005b838110156200034057818101518382015260200162000326565b50505050905090810190601f1680156200036e5780820380516001836020036101000a031916815260200191505b50858103825287518152875160209182019189019080838360005b83811015620003a357818101518382015260200162000389565b50505050905090810190601f168015620003d15780820380516001836020036101000a031916815260200191505b509a505050505050505050505060405180910390a150505050565b828054600181600116156101000203166002900490600052602060002090601f016020900481019282601f106200042f57805160ff19168380011785556200045f565b828001600101855582156200045f579182015b828111156200045f57825182559160200191906001019062000442565b506200046d92915062000471565b5090565b6200048e91905b808211156200046d576000815560010162000478565b90565b611ef380620004a16000396000f3fe60806040526004361061008d5763ffffffff7c0100000000000000000000000000000000000000000000000000000000600035041663455f502481146100925780635badbe4c146100be57806372a9f819146100e557806381d12c581461032d578063879153fa1461056e5780638d977672146107b657806397bdabdc1461099c578063b6cb58a514610a56575b600080fd5b34801561009e57600080fd5b506100bc600480360360208110156100b557600080fd5b5035610a6b565b005b3480156100ca57600080fd5b506100d3610dda565b60408051918252519081900360200190f35b3480156100f157600080fd5b506100bc6004803603608081101561010857600080fd5b81019060208101813564010000000081111561012357600080fd5b82018360208201111561013557600080fd5b8035906020019184600183028401116401000000008311171561015757600080fd5b91908080601f01602080910402602001604051908101604052809392919081815260200183838082843760009201919091525092959493602081019350359150506401000000008111156101aa57600080fd5b8201836020820111156101bc57600080fd5b803590602001918460018302840111640100000000831117156101de57600080fd5b91908080601f016020809104026020016040519081016040528093929190818152602001838380828437600092019190915250929594936020810193503591505064010000000081111561023157600080fd5b82018360208201111561024357600080fd5b8035906020019184600183028401116401000000008311171561026557600080fd5b91908080601f01602080910402602001604051908101604052809392919081815260200183838082843760009201919091525092959493602081019350359150506401000000008111156102b857600080fd5b8201836020820111156102ca57600080fd5b803590602001918460018302840111640100000000831117156102ec57600080fd5b91908080601f016020809104026020016040519081016040528093929190818152602001838380828437600092019190915250929550610de0945050505050565b34801561033957600080fd5b506103576004803603602081101561035057600080fd5b50356110a6565b60405180878152602001806020018060200180602001806020018060200186810386528b818151815260200191508051906020019080838360005b838110156103aa578181015183820152602001610392565b50505050905090810190601f1680156103d75780820380516001836020036101000a031916815260200191505b5086810385528a5181528a516020918201918c019080838360005b8381101561040a5781810151838201526020016103f2565b50505050905090810190601f1680156104375780820380516001836020036101000a031916815260200191505b5086810384528951815289516020918201918b019080838360005b8381101561046a578181015183820152602001610452565b50505050905090810190601f1680156104975780820380516001836020036101000a031916815260200191505b5086810383528851815288516020918201918a019080838360005b838110156104ca5781810151838201526020016104b2565b50505050905090810190601f1680156104f75780820380516001836020036101000a031916815260200191505b50868103825287518152875160209182019189019080838360005b8381101561052a578181015183820152602001610512565b50505050905090810190601f1680156105575780820380516001836020036101000a031916815260200191505b509b50505050505050505050505060405180910390f35b34801561057a57600080fd5b506100bc6004803603608081101561059157600080fd5b8101906020810181356401000000008111156105ac57600080fd5b8201836020820111156105be57600080fd5b803590602001918460018302840111640100000000831117156105e057600080fd5b91908080601f016020809104026020016040519081016040528093929190818152602001838380828437600092019190915250929594936020810193503591505064010000000081111561063357600080fd5b82018360208201111561064557600080fd5b8035906020019184600183028401116401000000008311171561066757600080fd5b91908080601f01602080910402602001604051908101604052809392919081815260200183838082843760009201919091525092959493602081019350359150506401000000008111156106ba57600080fd5b8201836020820111156106cc57600080fd5b803590602001918460018302840111640100000000831117156106ee57600080fd5b91908080601f016020809104026020016040519081016040528093929190818152602001838380828437600092019190915250929594936020810193503591505064010000000081111561074157600080fd5b82018360208201111561075357600080fd5b8035906020019184600183028401116401000000008311171561077557600080fd5b91908080601f01602080910402602001604051908101604052809392919081815260200183838082843760009201919091525092955061138f945050505050565b3480156107c257600080fd5b506107e0600480360360208110156107d957600080fd5b50356116a4565b60405180878152602001806020018060200180602001806020018615151515815260200185810385528a818151815260200191508051906020019080838360005b83811015610839578181015183820152602001610821565b50505050905090810190601f1680156108665780820380516001836020036101000a031916815260200191505b5085810384528951815289516020918201918b019080838360005b83811015610899578181015183820152602001610881565b50505050905090810190601f1680156108c65780820380516001836020036101000a031916815260200191505b5085810383528851815288516020918201918a019080838360005b838110156108f95781810151838201526020016108e1565b50505050905090810190601f1680156109265780820380516001836020036101000a031916815260200191505b50858103825287518152875160209182019189019080838360005b83811015610959578181015183820152602001610941565b50505050905090810190601f1680156109865780820380516001836020036101000a031916815260200191505b509a505050505050505050505060405180910390f35b3480156109a857600080fd5b506100bc600480360360408110156109bf57600080fd5b813591908101906040810160208201356401000000008111156109e157600080fd5b8201836020820111156109f357600080fd5b80359060200191846001830284011164010000000083111715610a1557600080fd5b91908080601f016020809104026020016040519081016040528093929190818152602001838380828437600092019190915250929550611904945050505050565b348015610a6257600080fd5b506100d3611db6565b610a73611dbc565b600082815260026020818152604092839020835160c081018552815481526001808301805487519281161561010002600019011695909504601f8101859004850282018501909652858152909491938584019391929091830182828015610b1b5780601f10610af057610100808354040283529160200191610b1b565b820191906000526020600020905b815481529060010190602001808311610afe57829003601f168201915b5050509183525050600282810180546040805160206001841615610100026000190190931694909404601f81018390048302850183019091528084529381019390830182828015610bad5780601f10610b8257610100808354040283529160200191610bad565b820191906000526020600020905b815481529060010190602001808311610b9057829003601f168201915b505050918352505060038201805460408051602060026001851615610100026000190190941693909304601f8101849004840282018401909252818152938201939291830182828015610c415780601f10610c1657610100808354040283529160200191610c41565b820191906000526020600020905b815481529060010190602001808311610c2457829003601f168201915b505050918352505060048201805460408051602060026001851615610100026000190190941693909304601f8101849004840282018401909252818152938201939291830182828015610cd55780601f10610caa57610100808354040283529160200191610cd5565b820191906000526020600020905b815481529060010190602001808311610cb857829003601f168201915b50505091835250506005919091015460ff16151560209182015260a082018051159052600084815260028252604090208251815582820151805193945084939192610d2892600185019290910190611df5565b5060408201518051610d44916002840191602090910190611df5565b5060608201518051610d60916003840191602090910190611df5565b5060808201518051610d7c916004840191602090910190611df5565b5060a091820151600591909101805460ff191691151591909117905581015160408051848152911515602083015280517fe21fa966ca5cd02748c0752352d18c48165e61cb55b4c29cccf924b5a95fcff19281900390910190a15050565b60015481565b6000805460019081018083556040805160c08101825282815260208082018a81528284018a9052606083018990526080830188905260a08301879052938652600281529190942084518155915180519293610e4393908501929190910190611df5565b5060408201518051610e5f916002840191602090910190611df5565b5060608201518051610e7b916003840191602090910190611df5565b5060808201518051610e97916004840191602090910190611df5565b5060a08201518160050160006101000a81548160ff0219169083151502179055509050507fe1e94f490d2224e01e767c0d25b696f19dc4c3593849e4db330338c945ebaf3560005485858585600060405180878152602001806020018060200180602001806020018615151515815260200185810385528a818151815260200191508051906020019080838360005b83811015610f3e578181015183820152602001610f26565b50505050905090810190601f168015610f6b5780820380516001836020036101000a031916815260200191505b5085810384528951815289516020918201918b019080838360005b83811015610f9e578181015183820152602001610f86565b50505050905090810190601f168015610fcb5780820380516001836020036101000a031916815260200191505b5085810383528851815288516020918201918a019080838360005b83811015610ffe578181015183820152602001610fe6565b50505050905090810190601f16801561102b5780820380516001836020036101000a031916815260200191505b50858103825287518152875160209182019189019080838360005b8381101561105e578181015183820152602001611046565b50505050905090810190601f16801561108b5780820380516001836020036101000a031916815260200191505b509a505050505050505050505060405180910390a150505050565b6003602090815260009182526040918290208054600180830180548651600293821615610100026000190190911692909204601f8101869004860283018601909652858252919492939092908301828280156111435780601f1061111857610100808354040283529160200191611143565b820191906000526020600020905b81548152906001019060200180831161112657829003601f168201915b50505060028085018054604080516020601f60001961010060018716150201909416959095049283018590048502810185019091528181529596959450909250908301828280156111d55780601f106111aa576101008083540402835291602001916111d5565b820191906000526020600020905b8154815290600101906020018083116111b857829003601f168201915b5050505060038301805460408051602060026001851615610100026000190190941693909304601f81018490048402820184019092528181529495949350908301828280156112655780601f1061123a57610100808354040283529160200191611265565b820191906000526020600020905b81548152906001019060200180831161124857829003601f168201915b5050505060048301805460408051602060026001851615610100026000190190941693909304601f81018490048402820184019092528181529495949350908301828280156112f55780601f106112ca576101008083540402835291602001916112f5565b820191906000526020600020905b8154815290600101906020018083116112d857829003601f168201915b5050505060058301805460408051602060026001851615610100026000190190941693909304601f81018490048402820184019092528181529495949350908301828280156113855780601f1061135a57610100808354040283529160200191611385565b820191906000526020600020905b81548152906001019060200180831161136857829003601f168201915b5050505050905086565b6001805481018082556040805160c08101825282815260208082018981528284018990526060830188905260808301879052835180850185528681527f30000000000000000000000000000000000000000000000000000000000000008184015260a08401526000948552600382529290932081518155915180519194929361141d93850192910190611df5565b5060408201518051611439916002840191602090910190611df5565b5060608201518051611455916003840191602090910190611df5565b5060808201518051611471916004840191602090910190611df5565b5060a0820151805161148d916005840191602090910190611df5565b509050507f0877547ddd9bf98a45b7259c3ba8bb5526f354bd8e4f8b12ee7015299b0f29706001548585858560405180868152602001806020018060200180602001806020018060200186810386528a818151815260200191508051906020019080838360005b8381101561150c5781810151838201526020016114f4565b50505050905090810190601f1680156115395780820380516001836020036101000a031916815260200191505b5086810385528951815289516020918201918b019080838360005b8381101561156c578181015183820152602001611554565b50505050905090810190601f1680156115995780820380516001836020036101000a031916815260200191505b5086810384528851815288516020918201918a019080838360005b838110156115cc5781810151838201526020016115b4565b50505050905090810190601f1680156115f95780820380516001836020036101000a031916815260200191505b50868103835287518152875160209182019189019080838360005b8381101561162c578181015183820152602001611614565b50505050905090810190601f1680156116595780820380516001836020036101000a031916815260200191505b50958603905250506001835250507f3000000000000000000000000000000000000000000000000000000000000000602082015260408051918290030195509350505050a150505050565b60026020818152600092835260409283902080546001808301805487519281161561010002600019011695909504601f810185900485028201850190965285815290949193909290919083018282801561173f5780601f106117145761010080835404028352916020019161173f565b820191906000526020600020905b81548152906001019060200180831161172257829003601f168201915b50505060028085018054604080516020601f60001961010060018716150201909416959095049283018590048502810185019091528181529596959450909250908301828280156117d15780601f106117a6576101008083540402835291602001916117d1565b820191906000526020600020905b8154815290600101906020018083116117b457829003601f168201915b5050505060038301805460408051602060026001851615610100026000190190941693909304601f81018490048402820184019092528181529495949350908301828280156118615780601f1061183657610100808354040283529160200191611861565b820191906000526020600020905b81548152906001019060200180831161184457829003601f168201915b5050505060048301805460408051602060026001851615610100026000190190941693909304601f81018490048402820184019092528181529495949350908301828280156118f15780601f106118c6576101008083540402835291602001916118f1565b820191906000526020600020905b8154815290600101906020018083116118d457829003601f168201915b5050506005909301549192505060ff1686565b61190c611e73565b6003600084815260200190815260200160002060c0604051908101604052908160008201548152602001600182018054600181600116156101000203166002900480601f0160208091040260200160405190810160405280929190818152602001828054600181600116156101000203166002900480156119ce5780601f106119a3576101008083540402835291602001916119ce565b820191906000526020600020905b8154815290600101906020018083116119b157829003601f168201915b5050509183525050600282810180546040805160206001841615610100026000190190931694909404601f81018390048302850183019091528084529381019390830182828015611a605780601f10611a3557610100808354040283529160200191611a60565b820191906000526020600020905b815481529060010190602001808311611a4357829003601f168201915b505050918352505060038201805460408051602060026001851615610100026000190190941693909304601f8101849004840282018401909252818152938201939291830182828015611af45780601f10611ac957610100808354040283529160200191611af4565b820191906000526020600020905b815481529060010190602001808311611ad757829003601f168201915b505050918352505060048201805460408051602060026001851615610100026000190190941693909304601f8101849004840282018401909252818152938201939291830182828015611b885780601f10611b5d57610100808354040283529160200191611b88565b820191906000526020600020905b815481529060010190602001808311611b6b57829003601f168201915b505050918352505060058201805460408051602060026001851615610100026000190190941693909304601f8101849004840282018401909252818152938201939291830182828015611c1c5780601f10611bf157610100808354040283529160200191611c1c565b820191906000526020600020905b815481529060010190602001808311611bff57829003601f168201915b50505091909252505060408051808201909152600481527f747275650000000000000000000000000000000000000000000000000000000060208083019190915285519086012092935084929091507f6273151f959616268004b58dbb21e5c851b7b8d04498b4aabee12291d22fc0341415611cd05760408051808201909152600881527f5665726966696564000000000000000000000000000000000000000000000000602082015260a0840152611d0a565b60408051808201909152600881527f52656a6563746564000000000000000000000000000000000000000000000000602082015260a08401525b7f881f663e057ac4d2c1ea5d12f689f065fb14ca20ddb2230a99abeb4a85072fe0858460a001516040518083815260200180602001828103825283818151815260200191508051906020019080838360005b83811015611d74578181015183820152602001611d5c565b50505050905090810190601f168015611da15780820380516001836020036101000a031916815260200191505b50935050505060405180910390a15050505050565b60005481565b60c06040519081016040528060008152602001606081526020016060815260200160608152602001606081526020016000151581525090565b828054600181600116156101000203166002900490600052602060002090601f016020900481019282601f10611e3657805160ff1916838001178555611e63565b82800160010185558215611e63579182015b82811115611e63578251825591602001919060010190611e48565b50611e6f929150611eaa565b5090565b60c0604051908101604052806000815260200160608152602001606081526020016060815260200160608152602001606081525090565b611ec491905b80821115611e6f5760008155600101611eb0565b9056fea165627a7a72305820abe79afb4b0fab1e65e8df6b7ffb89252d5c7bb20fd96bedd49b12d2caf714e90029",
  "source": "pragma solidity ^0.5.0;\r\n// if you write a new function to the contract u should first migrate it\r\n// to the blockchain by typing \" truffle migrate --reset \"\r\n\r\n\r\ncontract ToDoList {\r\n\r\n    uint public taskCount = 0; \r\n    uint public requestCount = 0;\r\n\r\n    struct Task {\r\n        uint id;\r\n        string regNo;\r\n        string owner;\r\n        string model;\r\n        string manu;\r\n        bool completed;\r\n    }\r\n\r\n    struct Request {\r\n        uint id;\r\n        string regNo;\r\n        string owner;\r\n        string model;\r\n        string manu;\r\n        string status;\r\n    }\r\n    // Creates an ordered list like 1 -> {Registration_id,name,etc} for each vehicle that is being registered to the blockchain\r\n    mapping (uint => Task) public tasks; \r\n    mapping (uint => Request) public requests;\r\n\r\n    event TaskRequest(\r\n        uint id,\r\n        string regNo,\r\n        string owner,\r\n        string model,\r\n        string manu,\r\n        string status\r\n    );\r\n\r\n    event TaskCreated(\r\n        uint id,\r\n        string regNo,\r\n        string owner,\r\n        string model,\r\n        string manu,\r\n        bool completed\r\n    );\r\n\r\n    event TaskCompleted(\r\n        uint id,\r\n        bool completed\r\n    );\r\n\r\n    event RequestCompleted(\r\n        uint id,\r\n        string status\r\n    );\r\n    //constructor class that creates the first entry on the blockchain\r\n    constructor() public {\r\n        createTask(\"91169 MCT\",\"Adharsh\",\"R8\",\"Audi\");\r\n    }\r\n    //Testing functionality\r\n    function requestTask(string memory _regNo,string memory _owner,string memory _model,string memory _manu) public {\r\n        requestCount ++;\r\n        requests[requestCount] = Request(requestCount,_regNo,_owner,_model,_manu,\"0\");\r\n        emit TaskRequest(requestCount,_regNo,_owner,_model,_manu,\"0\");\r\n    }\r\n    // creates a an ordered mapping whenere a new vehicle is registered to the blockchain\r\n    function createTask(string memory _regNo,string memory _owner,string memory _model,string memory _manu) public {\r\n        taskCount ++;\r\n        tasks[taskCount] = Task(taskCount,_regNo,_owner,_model,_manu,false);\r\n        emit TaskCreated(taskCount,_regNo,_owner,_model,_manu,false);\r\n    }\r\n    // changes the state of the vehicle from active to inactive\r\n    function toggleCompleted(uint _id) public {\r\n        Task memory _task = tasks[_id];\r\n        _task.completed = !_task.completed;\r\n        tasks[_id] = _task;\r\n        emit TaskCompleted(_id,_task.completed);\r\n    }\r\n    //Testing functionality\r\n    function statusCompleted(uint _id,string memory choice) public {\r\n        Request memory _request = requests[_id];\r\n        string memory choce = choice;\r\n        string memory v = \"true\";\r\n        if (keccak256(bytes(choce)) == keccak256(bytes(v))) {\r\n            _request.status = \"Verified\";\r\n        }\r\n        else{\r\n            _request.status = \"Rejected\";\r\n        }\r\n        emit RequestCompleted(_id,_request.status);\r\n    }\r\n    \r\n}\r\n\r\n",
  "sourcePath": "C:/Users/HP 25/Desktop/Adharsh/Blockchain/eth-todo-list/contracts/ToDoList.sol",
  "compiler": {
    "name": "solc",
    "version": "0.5.0+commit.1d4f565a.Emscripten.clang"
  },
  "schemaVersion": "3.0.1",
  "updatedAt": "2022-07-25T07:40:04.790Z",
  "devdoc": {
    "methods": {}
  },
  "userdoc": {
    "methods": {}
  }
}